{
  "contractName": "ERC20",
  "abi": [
    {
      "constant": true,
      "inputs": [],
      "name": "_totalSupply",
      "outputs": [
        {
          "name": "",
          "type": "uint256"
        }
      ],
      "payable": false,
      "stateMutability": "view",
      "type": "function"
    },
    {
      "constant": true,
      "inputs": [
        {
          "name": "",
          "type": "address"
        }
      ],
      "name": "_balances",
      "outputs": [
        {
          "name": "",
          "type": "uint256"
        }
      ],
      "payable": false,
      "stateMutability": "view",
      "type": "function"
    },
    {
      "constant": true,
      "inputs": [
        {
          "name": "",
          "type": "address"
        },
        {
          "name": "",
          "type": "address"
        }
      ],
      "name": "_allowed",
      "outputs": [
        {
          "name": "",
          "type": "uint256"
        }
      ],
      "payable": false,
      "stateMutability": "view",
      "type": "function"
    },
    {
      "anonymous": false,
      "inputs": [
        {
          "indexed": true,
          "name": "from",
          "type": "address"
        },
        {
          "indexed": true,
          "name": "to",
          "type": "address"
        },
        {
          "indexed": false,
          "name": "tokens",
          "type": "uint256"
        }
      ],
      "name": "Transfer",
      "type": "event"
    },
    {
      "anonymous": false,
      "inputs": [
        {
          "indexed": true,
          "name": "tokenOwner",
          "type": "address"
        },
        {
          "indexed": true,
          "name": "spender",
          "type": "address"
        },
        {
          "indexed": false,
          "name": "tokens",
          "type": "uint256"
        }
      ],
      "name": "Approval",
      "type": "event"
    },
    {
      "constant": true,
      "inputs": [],
      "name": "totalSupply",
      "outputs": [
        {
          "name": "",
          "type": "uint256"
        }
      ],
      "payable": false,
      "stateMutability": "view",
      "type": "function"
    },
    {
      "constant": true,
      "inputs": [
        {
          "name": "owner",
          "type": "address"
        }
      ],
      "name": "balanceOf",
      "outputs": [
        {
          "name": "",
          "type": "uint256"
        }
      ],
      "payable": false,
      "stateMutability": "view",
      "type": "function"
    },
    {
      "constant": true,
      "inputs": [
        {
          "name": "owner",
          "type": "address"
        },
        {
          "name": "spender",
          "type": "address"
        }
      ],
      "name": "allowance",
      "outputs": [
        {
          "name": "",
          "type": "uint256"
        }
      ],
      "payable": false,
      "stateMutability": "view",
      "type": "function"
    },
    {
      "constant": false,
      "inputs": [
        {
          "name": "to",
          "type": "address"
        },
        {
          "name": "value",
          "type": "uint256"
        }
      ],
      "name": "transfer",
      "outputs": [
        {
          "name": "",
          "type": "bool"
        }
      ],
      "payable": false,
      "stateMutability": "nonpayable",
      "type": "function"
    },
    {
      "constant": false,
      "inputs": [
        {
          "name": "spender",
          "type": "address"
        },
        {
          "name": "value",
          "type": "uint256"
        }
      ],
      "name": "approve",
      "outputs": [
        {
          "name": "",
          "type": "bool"
        }
      ],
      "payable": false,
      "stateMutability": "nonpayable",
      "type": "function"
    },
    {
      "constant": false,
      "inputs": [
        {
          "name": "from",
          "type": "address"
        },
        {
          "name": "to",
          "type": "address"
        },
        {
          "name": "value",
          "type": "uint256"
        }
      ],
      "name": "transferFrom",
      "outputs": [
        {
          "name": "",
          "type": "bool"
        }
      ],
      "payable": false,
      "stateMutability": "nonpayable",
      "type": "function"
    },
    {
      "constant": false,
      "inputs": [
        {
          "name": "spender",
          "type": "address"
        },
        {
          "name": "addedValue",
          "type": "uint256"
        }
      ],
      "name": "increaseAllowance",
      "outputs": [
        {
          "name": "",
          "type": "bool"
        }
      ],
      "payable": false,
      "stateMutability": "nonpayable",
      "type": "function"
    },
    {
      "constant": false,
      "inputs": [
        {
          "name": "spender",
          "type": "address"
        },
        {
          "name": "subtractedValue",
          "type": "uint256"
        }
      ],
      "name": "decreaseAllowance",
      "outputs": [
        {
          "name": "",
          "type": "bool"
        }
      ],
      "payable": false,
      "stateMutability": "nonpayable",
      "type": "function"
    }
  ],
  "bytecode": "0x608060405234801561001057600080fd5b506111bf806100206000396000f3006080604052600436106100af576000357c0100000000000000000000000000000000000000000000000000000000900463ffffffff168063095ea7b3146100b457806318160ddd1461011957806323b872dd1461014457806339509351146101c95780633eaaf86b1461022e5780636ebcf6071461025957806370a08231146102b0578063a457c2d714610307578063a9059cbb1461036c578063ba0fb861146103d1578063dd62ed3e14610448575b600080fd5b3480156100c057600080fd5b506100ff600480360381019080803573ffffffffffffffffffffffffffffffffffffffff169060200190929190803590602001909291905050506104bf565b604051808215151515815260200191505060405180910390f35b34801561012557600080fd5b5061012e6105ec565b6040518082815260200191505060405180910390f35b34801561015057600080fd5b506101af600480360381019080803573ffffffffffffffffffffffffffffffffffffffff169060200190929190803573ffffffffffffffffffffffffffffffffffffffff169060200190929190803590602001909291905050506105f6565b604051808215151515815260200191505060405180910390f35b3480156101d557600080fd5b50610214600480360381019080803573ffffffffffffffffffffffffffffffffffffffff169060200190929190803590602001909291905050506109b1565b604051808215151515815260200191505060405180910390f35b34801561023a57600080fd5b50610243610be8565b6040518082815260200191505060405180910390f35b34801561026557600080fd5b5061029a600480360381019080803573ffffffffffffffffffffffffffffffffffffffff169060200190929190505050610bee565b6040518082815260200191505060405180910390f35b3480156102bc57600080fd5b506102f1600480360381019080803573ffffffffffffffffffffffffffffffffffffffff169060200190929190505050610c06565b6040518082815260200191505060405180910390f35b34801561031357600080fd5b50610352600480360381019080803573ffffffffffffffffffffffffffffffffffffffff16906020019092919080359060200190929190505050610c4e565b604051808215151515815260200191505060405180910390f35b34801561037857600080fd5b506103b7600480360381019080803573ffffffffffffffffffffffffffffffffffffffff16906020019092919080359060200190929190505050610e85565b604051808215151515815260200191505060405180910390f35b3480156103dd57600080fd5b50610432600480360381019080803573ffffffffffffffffffffffffffffffffffffffff169060200190929190803573ffffffffffffffffffffffffffffffffffffffff1690602001909291905050506110a5565b6040518082815260200191505060405180910390f35b34801561045457600080fd5b506104a9600480360381019080803573ffffffffffffffffffffffffffffffffffffffff169060200190929190803573ffffffffffffffffffffffffffffffffffffffff1690602001909291905050506110ca565b6040518082815260200191505060405180910390f35b60008073ffffffffffffffffffffffffffffffffffffffff168373ffffffffffffffffffffffffffffffffffffffff16141515156104fc57600080fd5b81600160003373ffffffffffffffffffffffffffffffffffffffff1673ffffffffffffffffffffffffffffffffffffffff16815260200190815260200160002060008573ffffffffffffffffffffffffffffffffffffffff1673ffffffffffffffffffffffffffffffffffffffff168152602001908152602001600020819055508273ffffffffffffffffffffffffffffffffffffffff163373ffffffffffffffffffffffffffffffffffffffff167f8c5be1e5ebec7d5bd14f71427d1e84f3dd0314c0f7b2291e5b200ac8c7c3b925846040518082815260200191505060405180910390a36001905092915050565b6000600254905090565b60008060008573ffffffffffffffffffffffffffffffffffffffff1673ffffffffffffffffffffffffffffffffffffffff16815260200190815260200160002054821115151561064557600080fd5b600160008573ffffffffffffffffffffffffffffffffffffffff1673ffffffffffffffffffffffffffffffffffffffff16815260200190815260200160002060003373ffffffffffffffffffffffffffffffffffffffff1673ffffffffffffffffffffffffffffffffffffffff1681526020019081526020016000205482111515156106d057600080fd5b600073ffffffffffffffffffffffffffffffffffffffff168373ffffffffffffffffffffffffffffffffffffffff161415151561070c57600080fd5b61075d826000808773ffffffffffffffffffffffffffffffffffffffff1673ffffffffffffffffffffffffffffffffffffffff1681526020019081526020016000205461115190919063ffffffff16565b6000808673ffffffffffffffffffffffffffffffffffffffff1673ffffffffffffffffffffffffffffffffffffffff168152602001908152602001600020819055506107f0826000808673ffffffffffffffffffffffffffffffffffffffff1673ffffffffffffffffffffffffffffffffffffffff1681526020019081526020016000205461117290919063ffffffff16565b6000808573ffffffffffffffffffffffffffffffffffffffff1673ffffffffffffffffffffffffffffffffffffffff168152602001908152602001600020819055506108c182600160008773ffffffffffffffffffffffffffffffffffffffff1673ffffffffffffffffffffffffffffffffffffffff16815260200190815260200160002060003373ffffffffffffffffffffffffffffffffffffffff1673ffffffffffffffffffffffffffffffffffffffff1681526020019081526020016000205461115190919063ffffffff16565b600160008673ffffffffffffffffffffffffffffffffffffffff1673ffffffffffffffffffffffffffffffffffffffff16815260200190815260200160002060003373ffffffffffffffffffffffffffffffffffffffff1673ffffffffffffffffffffffffffffffffffffffff168152602001908152602001600020819055508273ffffffffffffffffffffffffffffffffffffffff168473ffffffffffffffffffffffffffffffffffffffff167fddf252ad1be2c89b69c2b068fc378daa952ba7f163c4a11628f55a4df523b3ef846040518082815260200191505060405180910390a3600190509392505050565b60008073ffffffffffffffffffffffffffffffffffffffff168373ffffffffffffffffffffffffffffffffffffffff16141515156109ee57600080fd5b610a7d82600160003373ffffffffffffffffffffffffffffffffffffffff1673ffffffffffffffffffffffffffffffffffffffff16815260200190815260200160002060008673ffffffffffffffffffffffffffffffffffffffff1673ffffffffffffffffffffffffffffffffffffffff1681526020019081526020016000205461117290919063ffffffff16565b600160003373ffffffffffffffffffffffffffffffffffffffff1673ffffffffffffffffffffffffffffffffffffffff16815260200190815260200160002060008573ffffffffffffffffffffffffffffffffffffffff1673ffffffffffffffffffffffffffffffffffffffff168152602001908152602001600020819055508273ffffffffffffffffffffffffffffffffffffffff163373ffffffffffffffffffffffffffffffffffffffff167f8c5be1e5ebec7d5bd14f71427d1e84f3dd0314c0f7b2291e5b200ac8c7c3b925600160003373ffffffffffffffffffffffffffffffffffffffff1673ffffffffffffffffffffffffffffffffffffffff16815260200190815260200160002060008773ffffffffffffffffffffffffffffffffffffffff1673ffffffffffffffffffffffffffffffffffffffff168152602001908152602001600020546040518082815260200191505060405180910390a36001905092915050565b60025481565b60006020528060005260406000206000915090505481565b60008060008373ffffffffffffffffffffffffffffffffffffffff1673ffffffffffffffffffffffffffffffffffffffff168152602001908152602001600020549050919050565b60008073ffffffffffffffffffffffffffffffffffffffff168373ffffffffffffffffffffffffffffffffffffffff1614151515610c8b57600080fd5b610d1a82600160003373ffffffffffffffffffffffffffffffffffffffff1673ffffffffffffffffffffffffffffffffffffffff16815260200190815260200160002060008673ffffffffffffffffffffffffffffffffffffffff1673ffffffffffffffffffffffffffffffffffffffff1681526020019081526020016000205461115190919063ffffffff16565b600160003373ffffffffffffffffffffffffffffffffffffffff1673ffffffffffffffffffffffffffffffffffffffff16815260200190815260200160002060008573ffffffffffffffffffffffffffffffffffffffff1673ffffffffffffffffffffffffffffffffffffffff168152602001908152602001600020819055508273ffffffffffffffffffffffffffffffffffffffff163373ffffffffffffffffffffffffffffffffffffffff167f8c5be1e5ebec7d5bd14f71427d1e84f3dd0314c0f7b2291e5b200ac8c7c3b925600160003373ffffffffffffffffffffffffffffffffffffffff1673ffffffffffffffffffffffffffffffffffffffff16815260200190815260200160002060008773ffffffffffffffffffffffffffffffffffffffff1673ffffffffffffffffffffffffffffffffffffffff168152602001908152602001600020546040518082815260200191505060405180910390a36001905092915050565b60008060003373ffffffffffffffffffffffffffffffffffffffff1673ffffffffffffffffffffffffffffffffffffffff168152602001908152602001600020548211151515610ed457600080fd5b600073ffffffffffffffffffffffffffffffffffffffff168373ffffffffffffffffffffffffffffffffffffffff1614151515610f1057600080fd5b610f61826000803373ffffffffffffffffffffffffffffffffffffffff1673ffffffffffffffffffffffffffffffffffffffff1681526020019081526020016000205461115190919063ffffffff16565b6000803373ffffffffffffffffffffffffffffffffffffffff1673ffffffffffffffffffffffffffffffffffffffff16815260200190815260200160002081905550610ff4826000808673ffffffffffffffffffffffffffffffffffffffff1673ffffffffffffffffffffffffffffffffffffffff1681526020019081526020016000205461117290919063ffffffff16565b6000808573ffffffffffffffffffffffffffffffffffffffff1673ffffffffffffffffffffffffffffffffffffffff168152602001908152602001600020819055508273ffffffffffffffffffffffffffffffffffffffff163373ffffffffffffffffffffffffffffffffffffffff167fddf252ad1be2c89b69c2b068fc378daa952ba7f163c4a11628f55a4df523b3ef846040518082815260200191505060405180910390a36001905092915050565b6001602052816000526040600020602052806000526040600020600091509150505481565b6000600160008473ffffffffffffffffffffffffffffffffffffffff1673ffffffffffffffffffffffffffffffffffffffff16815260200190815260200160002060008373ffffffffffffffffffffffffffffffffffffffff1673ffffffffffffffffffffffffffffffffffffffff16815260200190815260200160002054905092915050565b60008083831115151561116357600080fd5b82840390508091505092915050565b600080828401905083811015151561118957600080fd5b80915050929150505600a165627a7a7230582005be29e9d36c256f18bff492ece66881b4f4e4e9484ecada5f715e567a4159410029",
  "source": "pragma solidity ^0.4.24;\n\nimport \"./IERC20.sol\";\nimport \"./SafeMath.sol\";\n\n/**\n * @title Standard ERC20 token\n *\n * @dev Implementation of the basic standard token.\n * https://github.com/ethereum/EIPs/blob/master/EIPS/eip-20.md\n * Originally based on code by FirstBlood: https://github.com/Firstbloodio/token/blob/master/smart_contract/FirstBloodToken.sol\n */\ncontract ERC20 is IERC20 {\n\tusing SafeMath for uint256;\n\n\tmapping (address => uint256) public _balances;\n\n\tmapping (address => mapping (address => uint256)) public _allowed;\n\n\tuint256 public _totalSupply;\n\n\t/**\n\t* @dev Total number of tokens in existence\n\t*/\n\tfunction totalSupply() public view returns (uint256) {\n\t\treturn _totalSupply;\n\t}\n\n\t/**\n\t* @dev Gets the balance of the specified address.\n\t* @param owner The address to query the balance of.\n\t\t* @return An uint256 representing the amount owned by the passed address.\n\t\t*/\n\tfunction balanceOf(address owner) public view returns (uint256) {\n\t\treturn _balances[owner];\n\t}\n\n\t/**\n\t* @dev Function to check the amount of tokens that an owner allowed to a spender.\n\t* @param owner address The address which owns the funds.\n\t\t* @param spender address The address which will spend the funds.\n\t\t* @return A uint256 specifying the amount of tokens still available for the spender.\n\t\t*/\n\tfunction allowance(\n\t\taddress owner,\n\t\taddress spender\n\t)\n\tpublic\n\tview\n\treturns (uint256)\n\t{\n\t\treturn _allowed[owner][spender];\n\t}\n\n\t/**\n\t* @dev Transfer token for a specified address\n\t* @param to The address to transfer to.\n\t\t* @param value The amount to be transferred.\n\t\t\t*/\n\tfunction transfer(address to, uint256 value) public returns (bool) {\n\t\trequire(value <= _balances[msg.sender]);\n\t\trequire(to != address(0));\n\n\t\t_balances[msg.sender] = _balances[msg.sender].sub(value);\n\t\t_balances[to] = _balances[to].add(value);\n\t\temit Transfer(msg.sender, to, value);\n\t\treturn true;\n\t}\n\n\t/**\n\t* @dev Approve the passed address to spend the specified amount of tokens on behalf of msg.sender.\n\t* Beware that changing an allowance with this method brings the risk that someone may use both the old\n\t* and the new allowance by unfortunate transaction ordering. One possible solution to mitigate this\n\t* race condition is to first reduce the spender's allowance to 0 and set the desired value afterwards:\n\t* https://github.com/ethereum/EIPs/issues/20#issuecomment-263524729\n\t* @param spender The address which will spend the funds.\n\t\t* @param value The amount of tokens to be spent.\n\t\t*/\n\tfunction approve(address spender, uint256 value) public returns (bool) {\n\t\trequire(spender != address(0));\n\n\t\t_allowed[msg.sender][spender] = value;\n\t\temit Approval(msg.sender, spender, value);\n\t\treturn true;\n\t}\n\n\t/**\n\t* @dev Transfer tokens from one address to another\n\t* @param from address The address which you want to send tokens from\n\t* @param to address The address which you want to transfer to\n\t* @param value uint256 the amount of tokens to be transferred\n\t*/\n\tfunction transferFrom(\n\t\taddress from,\n\t\taddress to,\n\t\tuint256 value\n\t)\n\tpublic\n\treturns (bool)\n\t{\n\t\trequire(value <= _balances[from]);\n\t\trequire(value <= _allowed[from][msg.sender]);\n\t\trequire(to != address(0));\n\n\t\t_balances[from] = _balances[from].sub(value);\n\t\t_balances[to] = _balances[to].add(value);\n\t\t_allowed[from][msg.sender] = _allowed[from][msg.sender].sub(value);\n\t\temit Transfer(from, to, value);\n\t\treturn true;\n\t}\n\n\t/**\n\t * @dev Increase the amount of tokens that an owner allowed to a spender.\n\t * approve should be called when allowed_[_spender] == 0. To increment\n\t * allowed value is better to use this function to avoid 2 calls (and wait until\n\t * the first transaction is mined)\n\t * From MonolithDAO Token.sol\n\t * @param spender The address which will spend the funds.\n\t * @param addedValue The amount of tokens to increase the allowance by.\n\t */\n\tfunction increaseAllowance(\n\t\taddress spender,\n\t\tuint256 addedValue\n\t)\n\tpublic\n\treturns (bool)\n\t{\n\t\trequire(spender != address(0));\n\n\t\t_allowed[msg.sender][spender] = (\n\t\t\t_allowed[msg.sender][spender].add(addedValue));\n\t\t\temit Approval(msg.sender, spender, _allowed[msg.sender][spender]);\n\t\t\treturn true;\n\t}\n\n\t/**\n\t * @dev Decrease the amount of tokens that an owner allowed to a spender.\n\t * approve should be called when allowed_[_spender] == 0. To decrement\n\t * allowed value is better to use this function to avoid 2 calls (and wait until\n\t * the first transaction is mined)\n\t * From MonolithDAO Token.sol\n\t * @param spender The address which will spend the funds.\n\t * @param subtractedValue The amount of tokens to decrease the allowance by.\n\t */\n\tfunction decreaseAllowance(\n\t\taddress spender,\n\t\tuint256 subtractedValue\n\t)\n\tpublic\n\treturns (bool)\n\t{\n\t\trequire(spender != address(0));\n\n\t\t_allowed[msg.sender][spender] = (\n\t\t\t_allowed[msg.sender][spender].sub(subtractedValue)\n\t\t);\n\t\temit Approval(msg.sender, spender, _allowed[msg.sender][spender]);\n\t\treturn true;\n\t}\n\n\t/**\n\t * @dev Internal function that mints an amount of the token and assigns it to\n\t * an account. This encapsulates the modification of balances such that the\n\t * proper events are emitted.\n\t * @param account The account that will receive the created tokens.\n\t * @param amount The amount that will be created.\n\t */\n\tfunction _mint(address account, uint256 amount) internal {\n\t\trequire(account != 0);\n\t\t_totalSupply = _totalSupply.add(amount);\n\t\t_balances[account] = _balances[account].add(amount);\n\t\temit Transfer(address(0), account, amount);\n\t}\n\n\t/**\n\t * @dev Internal function that burns an amount of the token of a given\n\t * account.\n\t * @param account The account whose tokens will be burnt.\n\t * @param amount The amount that will be burnt.\n\t */\n\tfunction _burn(address account, uint256 amount) internal {\n\t\trequire(account != 0);\n\t\trequire(amount <= _balances[account]);\n\n\t\t_totalSupply = _totalSupply.sub(amount);\n\t\t_balances[account] = _balances[account].sub(amount);\n\t\temit Transfer(account, address(0), amount);\n\t}\n\n\t/**\n\t * @dev Internal function that burns an amount of the token of a given\n\t * account, deducting from the sender's allowance for said account. Uses the\n\t * internal burn function.\n\t * @param account The account whose tokens will be burnt.\n\t * @param amount The amount that will be burnt.\n\t */\n\tfunction _burnFrom(address account, uint256 amount) internal {\n\t\trequire(amount <= _allowed[account][msg.sender]);\n\n\t\t// Should https://github.com/OpenZeppelin/zeppelin-solidity/issues/707 be accepted,\n\t\t// this function needs to emit an event with the updated approval.\n\t\t_allowed[account][msg.sender] = _allowed[account][msg.sender].sub(amount);\n\t\t_burn(account, amount);\n\t}\n}\n",
  "sourcePath": "/home/kjoseph/dev/bitpay/lib/contracts/ETH/contracts/ERC20.sol",
  "compiler": {
    "name": "solc",
    "version": "0.4.24+commit.e67f0147.Emscripten.clang"
  },
  "schemaVersion": "3.4.1",
  "updatedAt": "2021-09-08T17:20:57.092Z",
  "devdoc": {
    "methods": {
      "allowance(address,address)": {
        "details": "Function to check the amount of tokens that an owner allowed to a spender.",
        "params": {
          "owner": "address The address which owns the funds.",
          "spender": "address The address which will spend the funds."
        },
        "return": "A uint256 specifying the amount of tokens still available for the spender."
      },
      "approve(address,uint256)": {
        "details": "Approve the passed address to spend the specified amount of tokens on behalf of msg.sender. Beware that changing an allowance with this method brings the risk that someone may use both the old and the new allowance by unfortunate transaction ordering. One possible solution to mitigate this race condition is to first reduce the spender's allowance to 0 and set the desired value afterwards: https://github.com/ethereum/EIPs/issues/20#issuecomment-263524729",
        "params": {
          "spender": "The address which will spend the funds.",
          "value": "The amount of tokens to be spent."
        }
      },
      "balanceOf(address)": {
        "details": "Gets the balance of the specified address.",
        "params": {
          "owner": "The address to query the balance of."
        },
        "return": "An uint256 representing the amount owned by the passed address."
      },
      "decreaseAllowance(address,uint256)": {
        "details": "Decrease the amount of tokens that an owner allowed to a spender. approve should be called when allowed_[_spender] == 0. To decrement allowed value is better to use this function to avoid 2 calls (and wait until the first transaction is mined) From MonolithDAO Token.sol",
        "params": {
          "spender": "The address which will spend the funds.",
          "subtractedValue": "The amount of tokens to decrease the allowance by."
        }
      },
      "increaseAllowance(address,uint256)": {
        "details": "Increase the amount of tokens that an owner allowed to a spender. approve should be called when allowed_[_spender] == 0. To increment allowed value is better to use this function to avoid 2 calls (and wait until the first transaction is mined) From MonolithDAO Token.sol",
        "params": {
          "addedValue": "The amount of tokens to increase the allowance by.",
          "spender": "The address which will spend the funds."
        }
      },
      "totalSupply()": {
        "details": "Total number of tokens in existence"
      },
      "transfer(address,uint256)": {
        "details": "Transfer token for a specified address",
        "params": {
          "to": "The address to transfer to.",
          "value": "The amount to be transferred."
        }
      },
      "transferFrom(address,address,uint256)": {
        "details": "Transfer tokens from one address to another",
        "params": {
          "from": "address The address which you want to send tokens from",
          "to": "address The address which you want to transfer to",
          "value": "uint256 the amount of tokens to be transferred"
        }
      }
    },
    "title": "Standard ERC20 token"
  },
  "userdoc": {
    "methods": {}
  }
}