{
  "contractName": "Invoice",
  "abi": [
    {
      "constant": true,
      "inputs": [],
      "name": "owner",
      "outputs": [
        {
          "name": "",
          "type": "address"
        }
      ],
      "payable": false,
      "stateMutability": "view",
      "type": "function"
    },
    {
      "constant": true,
      "inputs": [],
      "name": "quoteSigner",
      "outputs": [
        {
          "name": "",
          "type": "address"
        }
      ],
      "payable": false,
      "stateMutability": "view",
      "type": "function"
    },
    {
      "constant": true,
      "inputs": [
        {
          "name": "",
          "type": "bytes32"
        }
      ],
      "name": "isPaid",
      "outputs": [
        {
          "name": "",
          "type": "bool"
        }
      ],
      "payable": false,
      "stateMutability": "view",
      "type": "function"
    },
    {
      "inputs": [
        {
          "name": "valueSigner",
          "type": "address"
        }
      ],
      "payable": false,
      "stateMutability": "nonpayable",
      "type": "constructor"
    },
    {
      "anonymous": false,
      "inputs": [
        {
          "indexed": true,
          "name": "hash",
          "type": "bytes32"
        },
        {
          "indexed": true,
          "name": "tokenContract",
          "type": "address"
        },
        {
          "indexed": false,
          "name": "time",
          "type": "uint256"
        },
        {
          "indexed": false,
          "name": "value",
          "type": "uint256"
        }
      ],
      "name": "PaymentAccepted",
      "type": "event"
    },
    {
      "constant": true,
      "inputs": [
        {
          "name": "value",
          "type": "uint256"
        },
        {
          "name": "gasPrice",
          "type": "uint256"
        },
        {
          "name": "expiration",
          "type": "uint256"
        },
        {
          "name": "payload",
          "type": "bytes32"
        },
        {
          "name": "hash",
          "type": "bytes32"
        },
        {
          "name": "v",
          "type": "uint8"
        },
        {
          "name": "r",
          "type": "bytes32"
        },
        {
          "name": "s",
          "type": "bytes32"
        },
        {
          "name": "tokenContract",
          "type": "address"
        }
      ],
      "name": "isValidPayment",
      "outputs": [
        {
          "name": "valid",
          "type": "bool"
        }
      ],
      "payable": false,
      "stateMutability": "view",
      "type": "function"
    },
    {
      "constant": true,
      "inputs": [
        {
          "name": "value",
          "type": "uint256"
        },
        {
          "name": "gasPrice",
          "type": "uint256"
        },
        {
          "name": "expiration",
          "type": "uint256"
        },
        {
          "name": "payload",
          "type": "bytes32"
        },
        {
          "name": "hash",
          "type": "bytes32"
        },
        {
          "name": "v",
          "type": "uint8"
        },
        {
          "name": "r",
          "type": "bytes32"
        },
        {
          "name": "s",
          "type": "bytes32"
        },
        {
          "name": "tokenContract",
          "type": "address"
        }
      ],
      "name": "validatePayment",
      "outputs": [
        {
          "name": "valid",
          "type": "bool"
        }
      ],
      "payable": false,
      "stateMutability": "view",
      "type": "function"
    },
    {
      "constant": false,
      "inputs": [
        {
          "name": "value",
          "type": "uint256"
        },
        {
          "name": "gasPrice",
          "type": "uint256"
        },
        {
          "name": "expiration",
          "type": "uint256"
        },
        {
          "name": "payload",
          "type": "bytes32"
        },
        {
          "name": "hash",
          "type": "bytes32"
        },
        {
          "name": "v",
          "type": "uint8"
        },
        {
          "name": "r",
          "type": "bytes32"
        },
        {
          "name": "s",
          "type": "bytes32"
        },
        {
          "name": "tokenContract",
          "type": "address"
        }
      ],
      "name": "pay",
      "outputs": [],
      "payable": true,
      "stateMutability": "payable",
      "type": "function"
    },
    {
      "constant": false,
      "inputs": [
        {
          "name": "tokenContract",
          "type": "address"
        }
      ],
      "name": "withdraw",
      "outputs": [],
      "payable": false,
      "stateMutability": "nonpayable",
      "type": "function"
    },
    {
      "constant": false,
      "inputs": [
        {
          "name": "newQuoteSigner",
          "type": "address"
        }
      ],
      "name": "setSigner",
      "outputs": [],
      "payable": false,
      "stateMutability": "nonpayable",
      "type": "function"
    },
    {
      "constant": false,
      "inputs": [
        {
          "name": "newAdmin",
          "type": "address"
        }
      ],
      "name": "setAdmin",
      "outputs": [],
      "payable": false,
      "stateMutability": "nonpayable",
      "type": "function"
    }
  ],
  "bytecode": "0x608060405234801561001057600080fd5b5060405160208061193b83398101806040528101908080519060200190929190505050336000806101000a81548173ffffffffffffffffffffffffffffffffffffffff021916908373ffffffffffffffffffffffffffffffffffffffff16021790555080600160006101000a81548173ffffffffffffffffffffffffffffffffffffffff021916908373ffffffffffffffffffffffffffffffffffffffff16021790555050611877806100c46000396000f300608060405260043610610099576000357c0100000000000000000000000000000000000000000000000000000000900463ffffffff1680630b0898211461009e57806351cff8d91461015c5780636c19e7831461019f578063704b6c02146101e25780638da5cb5b1461022557806398a89c1b1461027c578063b6b4af051461033a578063f413bdb3146103d3578063feef66401461042a575b600080fd5b3480156100aa57600080fd5b5061014260048036038101908080359060200190929190803590602001909291908035906020019092919080356000191690602001909291908035600019169060200190929190803560ff16906020019092919080356000191690602001909291908035600019169060200190929190803573ffffffffffffffffffffffffffffffffffffffff169060200190929190505050610473565b604051808215151515815260200191505060405180910390f35b34801561016857600080fd5b5061019d600480360381019080803573ffffffffffffffffffffffffffffffffffffffff1690602001909291905050506109e6565b005b3480156101ab57600080fd5b506101e0600480360381019080803573ffffffffffffffffffffffffffffffffffffffff169060200190929190505050610da4565b005b3480156101ee57600080fd5b50610223600480360381019080803573ffffffffffffffffffffffffffffffffffffffff169060200190929190505050610eac565b005b34801561023157600080fd5b5061023a610fb3565b604051808273ffffffffffffffffffffffffffffffffffffffff1673ffffffffffffffffffffffffffffffffffffffff16815260200191505060405180910390f35b34801561028857600080fd5b5061032060048036038101908080359060200190929190803590602001909291908035906020019092919080356000191690602001909291908035600019169060200190929190803560ff16906020019092919080356000191690602001909291908035600019169060200190929190803573ffffffffffffffffffffffffffffffffffffffff169060200190929190505050610fd8565b604051808215151515815260200191505060405180910390f35b6103d160048036038101908080359060200190929190803590602001909291908035906020019092919080356000191690602001909291908035600019169060200190929190803560ff16906020019092919080356000191690602001909291908035600019169060200190929190803573ffffffffffffffffffffffffffffffffffffffff169060200190929190505050611330565b005b3480156103df57600080fd5b506103e8611805565b604051808273ffffffffffffffffffffffffffffffffffffffff1673ffffffffffffffffffffffffffffffffffffffff16815260200191505060405180910390f35b34801561043657600080fd5b50610459600480360381019080803560001916906020019092919050505061182b565b604051808215151515815260200191505060405180910390f35b6000606060008060001515600260008c6000191660001916815260200190815260200160002060009054906101000a900460ff16151514151561051e576040517f08c379a00000000000000000000000000000000000000000000000000000000081526004018080602001828103825260118152602001807f416c7265616479206265656e207061696400000000000000000000000000000081525060200191505060405180910390fd5b8a4211151515610596576040517f08c379a000000000000000000000000000000000000000000000000000000000815260040180806020018281038252600f8152602001807f5061796d656e74206973206c617465000000000000000000000000000000000081525060200191505060405180910390fd5b8b3a1015151561060e576040517f08c379a000000000000000000000000000000000000000000000000000000000815260040180806020018281038252601d8152602001807f476173207072696365206c6f776572207468616e20726571756972656400000081525060200191505060405180910390fd5b6040805190810160405280601c81526020017f19457468657265756d205369676e6564204d6573736167653a0a33320000000081525092508c8c8c8c886040516020018086815260200185815260200184815260200183600019166000191681526020018273ffffffffffffffffffffffffffffffffffffffff1673ffffffffffffffffffffffffffffffffffffffff166c01000000000000000000000000028152601401955050505050506040516020818303038152906040526040518082805190602001908083835b6020831015156106fe57805182526020820191506020810190506020830392506106d9565b6001836020036101000a0380198251168184511680821785525050505050509050019150506040518091039020915082826040516020018083805190602001908083835b6020831015156107675780518252602082019150602081019050602083039250610742565b6001836020036101000a0380198251168184511680821785525050505050509050018260001916600019168152602001925050506040516020818303038152906040526040518082805190602001908083835b6020831015156107df57805182526020820191506020810190506020830392506107ba565b6001836020036101000a038019825116818451168082178552505050505050905001915050604051809103902090508860001916826000191614151561088d576040517f08c379a000000000000000000000000000000000000000000000000000000000815260040180806020018281038252600d8152602001807f48617368206d69736d617463680000000000000000000000000000000000000081525060200191505060405180910390fd5b600160009054906101000a900473ffffffffffffffffffffffffffffffffffffffff1673ffffffffffffffffffffffffffffffffffffffff166001828a8a8a604051600081526020016040526040518085600019166000191681526020018460ff1660ff1681526020018360001916600019168152602001826000191660001916815260200194505050505060206040516020810390808403906000865af115801561093d573d6000803e3d6000fd5b5050506020604051035173ffffffffffffffffffffffffffffffffffffffff161415156109d2576040517f08c379a000000000000000000000000000000000000000000000000000000000815260040180806020018281038252601c8152602001807f5369676e6174757265206d69736d6174636820666f722071756f74650000000081525060200191505060405180910390fd5b600193505050509998505050505050505050565b6000806000809054906101000a900473ffffffffffffffffffffffffffffffffffffffff1673ffffffffffffffffffffffffffffffffffffffff163373ffffffffffffffffffffffffffffffffffffffff16141515610aad576040517f08c379a000000000000000000000000000000000000000000000000000000000815260040180806020018281038252601a8152602001807f4d7573742062652074686520636f6e7472616374206f776e657200000000000081525060200191505060405180910390fd5b60008373ffffffffffffffffffffffffffffffffffffffff161415610b50576000809054906101000a900473ffffffffffffffffffffffffffffffffffffffff1673ffffffffffffffffffffffffffffffffffffffff166108fc3073ffffffffffffffffffffffffffffffffffffffff16319081150290604051600060405180830381858888f19350505050158015610b4a573d6000803e3d6000fd5b50610d9f565b8291508173ffffffffffffffffffffffffffffffffffffffff166370a08231306040518263ffffffff167c0100000000000000000000000000000000000000000000000000000000028152600401808273ffffffffffffffffffffffffffffffffffffffff1673ffffffffffffffffffffffffffffffffffffffff168152602001915050602060405180830381600087803b158015610bee57600080fd5b505af1158015610c02573d6000803e3d6000fd5b505050506040513d6020811015610c1857600080fd5b810190808051906020019092919050505090508173ffffffffffffffffffffffffffffffffffffffff1663a9059cbb6000809054906101000a900473ffffffffffffffffffffffffffffffffffffffff16836040518363ffffffff167c0100000000000000000000000000000000000000000000000000000000028152600401808373ffffffffffffffffffffffffffffffffffffffff1673ffffffffffffffffffffffffffffffffffffffff16815260200182815260200192505050602060405180830381600087803b158015610cef57600080fd5b505af1158015610d03573d6000803e3d6000fd5b505050506040513d6020811015610d1957600080fd5b81019080805190602001909291905050501515610d9e576040517f08c379a000000000000000000000000000000000000000000000000000000000815260040180806020018281038252601f8152602001807f4d7573742073756363656564207769746864726177696e6720746f6b656e730081525060200191505060405180910390fd5b5b505050565b6000809054906101000a900473ffffffffffffffffffffffffffffffffffffffff1673ffffffffffffffffffffffffffffffffffffffff163373ffffffffffffffffffffffffffffffffffffffff16141515610e68576040517f08c379a000000000000000000000000000000000000000000000000000000000815260040180806020018281038252601a8152602001807f4d7573742062652074686520636f6e7472616374206f776e657200000000000081525060200191505060405180910390fd5b80600160006101000a81548173ffffffffffffffffffffffffffffffffffffffff021916908373ffffffffffffffffffffffffffffffffffffffff16021790555050565b6000809054906101000a900473ffffffffffffffffffffffffffffffffffffffff1673ffffffffffffffffffffffffffffffffffffffff163373ffffffffffffffffffffffffffffffffffffffff16141515610f70576040517f08c379a000000000000000000000000000000000000000000000000000000000815260040180806020018281038252601a8152602001807f4d7573742062652074686520636f6e7472616374206f776e657200000000000081525060200191505060405180910390fd5b806000806101000a81548173ffffffffffffffffffffffffffffffffffffffff021916908373ffffffffffffffffffffffffffffffffffffffff16021790555050565b6000809054906101000a900473ffffffffffffffffffffffffffffffffffffffff1681565b6000806060600080600260008c6000191660001916815260200190815260200160002060009054906101000a900460ff1615935083801561101957508b4211155b935083801561102857508c3a10155b93506040805190810160405280601c81526020017f19457468657265756d205369676e6564204d6573736167653a0a33320000000081525092508d8d8d8d896040516020018086815260200185815260200184815260200183600019166000191681526020018273ffffffffffffffffffffffffffffffffffffffff1673ffffffffffffffffffffffffffffffffffffffff166c01000000000000000000000000028152601401955050505050506040516020818303038152906040526040518082805190602001908083835b60208310151561111a57805182526020820191506020810190506020830392506110f5565b6001836020036101000a0380198251168184511680821785525050505050509050019150506040518091039020915082826040516020018083805190602001908083835b602083101515611183578051825260208201915060208101905060208303925061115e565b6001836020036101000a0380198251168184511680821785525050505050509050018260001916600019168152602001925050506040516020818303038152906040526040518082805190602001908083835b6020831015156111fb57805182526020820191506020810190506020830392506111d6565b6001836020036101000a0380198251168184511680821785525050505050509050019150506040518091039020905083801561123e575089600019168260001916145b935083801561131a5750600160009054906101000a900473ffffffffffffffffffffffffffffffffffffffff1673ffffffffffffffffffffffffffffffffffffffff166001828b8b8b604051600081526020016040526040518085600019166000191681526020018460ff1660ff1681526020018360001916600019168152602001826000191660001916815260200194505050505060206040516020810390808403906000865af11580156112f8573d6000803e3d6000fd5b5050506020604051035173ffffffffffffffffffffffffffffffffffffffff16145b9350839450505050509998505050505050505050565b6000808273ffffffffffffffffffffffffffffffffffffffff1614156113da57611361348a8a8a8a8a8a8a8a610473565b15156113d5576040517f08c379a000000000000000000000000000000000000000000000000000000000815260040180806020018281038252601a8152602001807f4f6e6c79206163636570742076616c6964207061796d656e747300000000000081525060200191505060405180910390fd5b61176a565b819050898173ffffffffffffffffffffffffffffffffffffffff1663dd62ed3e33306040518363ffffffff167c0100000000000000000000000000000000000000000000000000000000028152600401808373ffffffffffffffffffffffffffffffffffffffff1673ffffffffffffffffffffffffffffffffffffffff1681526020018273ffffffffffffffffffffffffffffffffffffffff1673ffffffffffffffffffffffffffffffffffffffff16815260200192505050602060405180830381600087803b1580156114ad57600080fd5b505af11580156114c1573d6000803e3d6000fd5b505050506040513d60208110156114d757600080fd5b81019080805190602001909291905050501015151561155e576040517f08c379a000000000000000000000000000000000000000000000000000000000815260040180806020018281038252601e8152602001807f4d757374206861766520656e6f75676820746f6b656e7320746f20706179000081525060200191505060405180910390fd5b61156f8a8a8a8a8a8a8a8a8a610473565b15156115e3576040517f08c379a000000000000000000000000000000000000000000000000000000000815260040180806020018281038252601a8152602001807f4f6e6c79206163636570742076616c6964207061796d656e747300000000000081525060200191505060405180910390fd5b8073ffffffffffffffffffffffffffffffffffffffff166323b872dd33308d6040518463ffffffff167c0100000000000000000000000000000000000000000000000000000000028152600401808473ffffffffffffffffffffffffffffffffffffffff1673ffffffffffffffffffffffffffffffffffffffff1681526020018373ffffffffffffffffffffffffffffffffffffffff1673ffffffffffffffffffffffffffffffffffffffff1681526020018281526020019350505050602060405180830381600087803b1580156116ba57600080fd5b505af11580156116ce573d6000803e3d6000fd5b505050506040513d60208110156116e457600080fd5b81019080805190602001909291905050501515611769576040517f08c379a00000000000000000000000000000000000000000000000000000000081526004018080602001828103825260158152602001807f5472616e73666572206d7573742073756363656564000000000000000000000081525060200191505060405180910390fd5b5b600160026000896000191660001916815260200190815260200160002060006101000a81548160ff0219169083151502179055508173ffffffffffffffffffffffffffffffffffffffff1686600019167f826e7792f434a28ba302e6767da85b4b8e56b83a5e028687f30e848e32667f95428d604051808381526020018281526020019250505060405180910390a350505050505050505050565b600160009054906101000a900473ffffffffffffffffffffffffffffffffffffffff1681565b60026020528060005260406000206000915054906101000a900460ff16815600a165627a7a7230582052706ee696e2aabe75d821612addf462b1e43ae0590870858de64a97588e4d590029",
  "source": "pragma solidity ^0.4.23;\n\nimport \"./IERC20.sol\";\n\n\ncontract Invoice {\n  address public owner;\n  address public quoteSigner;\n  mapping(bytes32 => bool) public isPaid;\n\n  event PaymentAccepted(bytes32 indexed hash, address indexed tokenContract,  uint time, uint value);\n\n\n  constructor(address valueSigner) public {\n    owner = msg.sender;\n    quoteSigner = valueSigner;\n  }\n\n  function isValidPayment(\n    uint value,\n    uint gasPrice,\n    uint expiration,\n    bytes32 payload,\n    bytes32 hash,\n    uint8 v,\n    bytes32 r,\n    bytes32 s,\n    address tokenContract\n  ) public view returns(bool valid) {\n    bool isValid = !isPaid[payload];\n    isValid = isValid && block.timestamp <= expiration;\n    isValid = isValid && tx.gasprice >= gasPrice;\n    bytes memory prefix = \"\\x19Ethereum Signed Message:\\n32\";\n    bytes32 ourHash = keccak256(abi.encodePacked(value, gasPrice, expiration, payload, tokenContract));\n    bytes32 payloadHash = keccak256(abi.encodePacked(prefix, ourHash));\n    isValid = isValid && ourHash == hash;\n    isValid = isValid && (ecrecover(payloadHash, v, r, s) == quoteSigner);\n    return isValid;\n  }\n\n  function validatePayment(\n    uint value,\n    uint gasPrice,\n    uint expiration,\n    bytes32 payload,\n    bytes32 hash,\n    uint8 v,\n    bytes32 r,\n    bytes32 s,\n    address tokenContract\n  ) public view returns(bool valid) {\n    require(isPaid[payload] == false, \"Already been paid\");\n    require(block.timestamp <= expiration, \"Payment is late\");\n    require(tx.gasprice >= gasPrice, \"Gas price lower than required\");\n    bytes memory prefix = \"\\x19Ethereum Signed Message:\\n32\";\n    bytes32 ourHash = keccak256(abi.encodePacked(value, gasPrice, expiration, payload, tokenContract));\n    bytes32 payloadHash = keccak256(abi.encodePacked(prefix, ourHash));\n    require(ourHash == hash, \"Hash mismatch\");\n    require(ecrecover(payloadHash, v, r, s) == quoteSigner, \"Signature mismatch for quote\");\n    return true;\n  }\n\n\n  function pay(\n    uint value,\n    uint gasPrice,\n    uint expiration,\n    bytes32 payload,\n    bytes32 hash,\n    uint8 v,\n    bytes32 r,\n    bytes32 s,\n    address tokenContract\n  ) public payable {\n    if(tokenContract == 0x0) {\n      require(validatePayment(msg.value, gasPrice, expiration, payload, hash, v, r, s, tokenContract), \"Only accept valid payments\");\n    } else {\n      IERC20 token = IERC20(tokenContract);\n      require(token.allowance(msg.sender, address(this)) >= value, \"Must have enough tokens to pay\");\n      require(validatePayment(value, gasPrice, expiration, payload, hash, v, r, s, tokenContract), \"Only accept valid payments\");\n      require(token.transferFrom(msg.sender, address(this), value), \"Transfer must succeed\");\n    }\n    isPaid[payload] = true;\n    emit PaymentAccepted(hash, tokenContract, block.timestamp, value);\n  }\n\n  modifier isAdmin() {\n    require(msg.sender == owner, \"Must be the contract owner\");\n    _;\n  }\n\n  function withdraw(address tokenContract) public isAdmin {\n    if(tokenContract == 0x0) {\n      owner.transfer(address(this).balance);\n    } else {\n      IERC20 token = IERC20(tokenContract);\n      uint balance = token.balanceOf(address(this));\n      require(token.transfer(owner, balance), \"Must succeed withdrawing tokens\");\n    }\n  }\n\n  function setSigner(address newQuoteSigner) public isAdmin {\n    quoteSigner = newQuoteSigner;\n  }\n  function setAdmin(address newAdmin) public isAdmin {\n    owner = newAdmin;\n  }\n}\n",
  "sourcePath": "/home/kjoseph/dev/bitpay/lib/contracts/ETH/contracts/Invoice.sol",
  "compiler": {
    "name": "solc",
    "version": "0.4.24+commit.e67f0147.Emscripten.clang"
  },
  "schemaVersion": "3.4.4",
  "updatedAt": "2022-06-30T13:23:04.069Z",
  "networkType": "ethereum",
  "devdoc": {
    "methods": {}
  },
  "userdoc": {
    "methods": {}
  }
}